:100000000C946D000C9495000C9495000C94950044
:100010000C9495000C9495000C9495000C9495000C
:100020000C9495000C9495000C9495000C949500FC
:100030000C9495000C9495000C9495000C949500EC
:100040000C948F060C9495000C94FF060C94D90622
:100050000C9495000C9495000C9495000C949500CC
:100060000C9495000C949500638253630001080082
:1000700006040001000000002300260029004500BE
:100080000082000040002000000000240027002A19
:100090000000000000250028002B000404040404D4
:1000A0000404040202020202020303030303030125
:1000B00002040810204080010204081020010204FC
:1000C00008102000000008000201000003040700DF
:1000D00000000000000000001F0D11241FBECFEF24
:1000E000D8E0DEBFCDBF12E0A0E0B1E0EAECF0E284
:1000F00002C005900D92A230B107D9F725E0A2E029
:10010000B2E001C01D92AF3BB207E1F710E0CDE6CF
:10011000D0E004C02197FE010E94600DCC36D107CB
:10012000C9F70E9431070C9463100C940000CF9320
:10013000DF932091BB052223C1F0FC012081222303
:10014000A1F0CBEBD5E0A7EBB5E09C012C5F3F4FD6
:10015000899141919D918427892339F4E217F3070E
:10016000B9F781E0DF91CF91089580E0FBCFFC01EA
:10017000538D448D252F30E0842F90E0821B930B0C
:10018000541710F0CF96089501970895FC01918DB2
:10019000828D981761F0A28DAE0FBF2FB11D5D96B5
:1001A0008C91928D9F5F9F73928F90E008958FEF57
:1001B0009FEF0895FC01918D828D981731F0828D0B
:1001C000E80FF11D858D90E008958FEF9FEF089562
:1001D000FC01918D228D892F90E0805C9F4F821BC6
:1001E00091098F7399270895FC01A48DA80FB92F49
:1001F000B11DA35ABF4F2C91848D90E001968F734F
:100200009927848FA689B7892C93A089B1898C916D
:10021000837080648C93938D848D981306C00288BC
:10022000F389E02D80818F7D80830895EF92FF9286
:100230000F931F93CF93DF93EC0181E0888F9B8D09
:100240008C8D98131AC0E889F989808185FF15C0C3
:100250009FB7F894EE89FF896083E889F9898081E6
:100260008370806480839FBF81E090E0DF91CF91B5
:100270001F910F91FF90EF900895F62E0B8D10E0D7
:100280000F5F1F4F0F731127E02E8C8D8E110CC046
:100290000FB607FCFACFE889F989808185FFF5CF91
:1002A000CE010E94F400F1CFEB8DEC0FFD2FF11D7C
:1002B000E35AFF4FF0829FB7F8940B8FEA89FB89CE
:1002C00080818062CFCFCF93DF93EC01888D88232C
:1002D000B9F0AA89BB89E889F9898C9185FD03C0A9
:1002E000808186FD0DC00FB607FCF7CF8C9185FF8E
:1002F000F2CF808185FFEDCFCE010E94F400E9CFDF
:10030000DF91CF91089585E092E00E94E80021E01E
:10031000892B09F420E0822F089580E090E0892B5A
:1003200029F00E94830181110C940000089583300C
:1003300081F028F4813099F08230A9F00895873057
:10034000A9F08830C9F08430B1F4809180008F7DAD
:1003500003C0809180008F7780938000089584B5DA
:100360008F7784BD089584B58F7DFBCF8091B000D9
:100370008F778093B00008958091B0008F7DF9CF82
:100380001F93CF93DF93282F30E0F901ED53FF4FF8
:100390008491F901E155FF4FD491F901E556FF4FE2
:1003A000C491CC23A9F0162F81110E949701EC2F44
:1003B000F0E0EE0FFF1FEF56FF4FA591B4918FB7FE
:1003C000F894EC91111108C0D095DE23DC938FBF17
:1003D000DF91CF911F910895DE2BF8CFCF93DF935C
:1003E00090E0FC01E155FF4F249185569F4FFC01A1
:1003F00084918823D1F090E0880F991FFC01E95780
:10040000FF4FA591B491FC01EF56FF4FC591D491D8
:1004100061110EC09FB7F8948C91E22FE0958E2366
:100420008C932881E223E8839FBFDF91CF910895C9
:100430008FB7F894EC91E22BEC938FBFF6CF3FB7D8
:10044000F8948091B3059091B405A091B505B09151
:10045000B60526B5A89B05C02F3F19F00196A11D32
:10046000B11D3FBFBA2FA92F982F8827BC01CD01FE
:10047000620F711D811D911D42E0660F771F881F5D
:10048000991F4A95D1F708952FB7F8946091AF0559
:100490007091B0058091B1059091B2052FBF08957C
:1004A000AF92BF92CF92DF92EF92FF920F931F9382
:1004B000CF93DF936C017B018B01040F151FEB01C0
:1004C0005E01AE18BF08C017D10759F06991D60177
:1004D000ED91FC910190F081E02DC6010995892BE9
:1004E00079F7C501DF91CF911F910F91FF90EF90A8
:1004F000DF90CF90BF90AF900895809102039091CC
:10050000030398278927982744972091200330E0F8
:1005100044E0359527954A95E1F7220F331F220FC6
:10052000331F821B930B97FF02C090E080E0089579
:100530002091160330911403309316032093140373
:10054000209117033091150330931703209315035F
:10055000E2EFF2E021A5820F911D25A585A7662374
:1005600081F021A7892F9927319722E0EE3EF207EB
:1005700089F7109224031092250380E580932003CD
:10058000089511A6EFCF0F931F93CF93DF9370E0E1
:100590006E507D4F8A01075F1F4F213029F02230B6
:1005A00031F48A010250110930E020E003C000E07C
:1005B00010E09801EB01FA01E230F10558F0A99141
:1005C000B991BA27AB27BA270A0F1B1F211D311D6E
:1005D0003297F2CFFA01EE7F6E0F7F1F4E175F0743
:1005E00069F0FB01408150E070E060E0762F652FFC
:1005F000542F4427040F151F261F371FA9016627F4
:100600007727411551056105710519F02227332718
:10061000F1CF00951095E82FF0E0EE50FD4F1083DC
:100620000183DF91CF911F910F910895E2EFF2E0E6
:10063000108E118E80E4848B158A868B20E044E135
:1006400050E06EE088E10C94C3028EBD0DB407FE4D
:10065000FDCF089561E08091A2020E94C0017894CC
:100660000895F89460E08091A2020C94C0010F9369
:100670001F93CF93DF93EC018B010E9431032097EE
:10068000B9F08AE30E9425031EBCF801CE01019750
:1006900039F00DB407FEFDCF2EB51EBC2193F7CF68
:1006A0002197C00FD11F0DB407FEFDCF8EB58883F3
:1006B000DF91CF911F910F910C942A031F93CF9339
:1006C000DF93182FC62FD42F0E9431038C2F8F71E8
:1006D000812B0E9425038D2F0E942503DF91CF914E
:1006E0001F910C942A03CF93C82FC07680910402E7
:1006F0008C1799F043E06FE180EA0E945E03C0939B
:1007000004024C2F50E085E0559547958A95E1F716
:100710006FE180E8CF910C945E03CF910895CF9361
:10072000DF93C82FD62F0E9473034D2F6C2F80E4C8
:10073000DF91CF910C945E03CF93DF93C82FD72F17
:100740000E948F036D2F81E08C0FDF91CF910C946D
:100750008F03CF93C82F0E9473030E9431038C2F05
:100760008F710E94250380E00E942503C7FF03C00C
:1007700080E00E942503CEB50E942A038C2FCF91E2
:100780000895CF93DF93EC0140E86FE180E80E9489
:100790005E0340E86FE180EA0E945E034AE06CE19C
:1007A00080EA0E945E0360E07CE082E00E949C039D
:1007B000BE01745F86E00E949C0340E060E08AE72F
:1007C0000E945E030E9431032097B1F08AE70E94E5
:1007D00025038091F2028EBDE3EFF2E0CE50DD4FB3
:1007E000EC17FD0731F081910DB407FEFDCF8EBDF2
:1007F000F7CF0DB407FEFDCF0E942A0348E06FE15A
:1008000080E80E945E03D0E0C0E08CE10E94A90372
:100810008A7029F42196C83E83E0D807B1F78CE1AD
:100820000E94A90381FD03C0C83ED34039F448E0CB
:100830006FE180EADF91CF910C945E03DF91CF915D
:1008400008950F931F93CF93DF938C018896C2EF87
:10085000D2E0988B898B0E9416031AAA1BAAA801C2
:10086000445E5F4F22E06AE182E30E94C302C80156
:10087000C696DF91CF911F910F910C94C103CF9336
:10088000DF93EB01682F84ED0E948F03BE0186ED9C
:100890000E949C038AEE0E94A90380FDFBCFDF919A
:1008A000CF910895CF92DF92EF92FF920F931F9313
:1008B0008634910568F120911503233449F5C090E1
:1008C0002003D0902103E0902203F09023030091B5
:1008D000B4021091B5022091B6023091B702C01651
:1008E000D106E206F306A1F4ECE0F4E08E509D4F51
:1008F0009F012E5F3F4F41815081553319F4528142
:10090000651771F0F901E40FF11DE817F90780F39D
:1009100080E01F910F91FF90EF90DF90CF900895AE
:1009200081E0F7CFE0910202F09103029F012F5F77
:100930003F4F309303022093020280830895FF9279
:100940000F931F93CF93DF93162FF42E052F0E9442
:100950009204812F0E949204CF2DD02F115020F0AD
:1009600089910E949204FACFDF91CF911F910F914C
:10097000FF900895DC0196E0FB0101900D929A959D
:10098000E1F70895BC0182EF92E00E94BA0465ECA1
:1009900072E088EF92E00C94BA04DC0194E0FB0171
:1009A00001900D929A95E1F7089588EF92E00E94E8
:1009B000C2046CE073E080E193E00E94CD046BEB35
:1009C00075E08CE093E00E94CD040C941603262F72
:1009D000206120932103643021F0009711F481E01D
:1009E00090E061E00E9498021092020388E28093F6
:1009F00003030E94D50484E0809322031092230312
:100A000022E04CE150E06AE182E30E94C30286E307
:100A100090E00C94C103CF93DF93EB010E94C204DA
:100A2000BE0180E193E00E94CD046BEB75E08CE0A9
:100A300093E0DF91CF910C94CD04CF93DF93EB0142
:100A400044E050E0BC018EE093E00E94750D892BDC
:100A500049F468E073E0CE010E94BA0481E0DF91BE
:100A6000CF91089580E0FBCF0F931F93CF938C011C
:100A700082E491E00E94C204E2EFF2E088E0848721
:100A8000C6E0C58748E050E06CE670E080E093E0A7
:100A90000E944C0DE2E1F3E0DF011D92CA95E9F7F7
:100AA00065EC72E088E093E00E94BA04B80188E146
:100AB00093E00E94CD046BEB75E08EE093E00E9422
:100AC000CD048AE290E0CF911F910F910C94C10365
:100AD000EF92FF920F931F93CF93DF938C01E2EF7E
:100AE000F2E086E191E0DF019C011D92215030404F
:100AF000E1F78091C402C2E4D1E0833011F4CFEA7F
:100B0000D2E0CE010E949700BE01882309F4ACC058
:100B10008FEC92E00E940B058881807F803E91F0EF
:100B200088819981AA81BB818F3F9F4FAF4FBF4F73
:100B300049F044E050E0BE018BEC92E00E94750D5C
:100B4000892B31F462E471E082EF92E00E94BA04F2
:100B500088E08093FE021092FF0249E050E06EE7C9
:100B600070E080E093E00E944C0D1092020381E15E
:100B7000809309031092160383E480931703109265
:100B8000140384E4809315031092180310921A033F
:100B900010921B0362E471E082EF92E00E94BA04BB
:100BA00081E080931C0380931D0386E080931E03E5
:100BB0008091B4029091B502A091B602B091B702B3
:100BC0008093200390932103A0932203B0932303E7
:100BD000C091C402C33031F46BEB75E088E293E05E
:100BE0000E94CD0465EC72E088E393E00E94BA04B1
:100BF00088E094E09093030280930202E8E6F0E03C
:100C000084910E949204E9E6F0E084910E949204AB
:100C1000EAE6F0E084910E949204EBE6F0E0849131
:100C20000E94920485E30E94920481E00E94920453
:100C300083E0C11101C081E00E9492048DE30E9413
:100C4000920487E00E94920481E00E94920485EC65
:100C5000E82E82E0F82EC7E0C15049F0D7018D910F
:100C60007D010E949204F8CF85ED92E053CF8091F0
:100C70000001882371F060E071E0FB010190002029
:100C8000E9F7BF016150714040E051E08CE00E9403
:100C90009F040115110559F0A80164E082E30E9448
:100CA0009F044FEA52E064E086E30E949F0487E3DA
:100CB0000E94920483E00E94920481E00E949204C8
:100CC00083E00E94920486E00E9492048FEF0E94CB
:100CD0009204C0910202D0910302CC51D340CE01C4
:100CE0004C9690930203809303030E941603CE0157
:100CF00008969093180380931903AE01405F5F4FED
:100D000021E06AE188E20E94C302CE018A96DF9167
:100D1000CF911F910F91FF90EF900C94C1031F9200
:100D20000F920FB60F9211242F933F938F939F939F
:100D3000AF93BF938091AF059091B005A091B1059D
:100D4000B091B2053091AE0523E0230F2D3758F551
:100D50000196A11DB11D2093AE058093AF05909320
:100D6000B005A093B105B093B2058091B305909101
:100D7000B405A091B505B091B6050196A11DB11DB0
:100D80008093B3059093B405A093B505B093B605D1
:100D9000BF91AF919F918F913F912F910F900FBE77
:100DA0000F901F90189526E8230F0296A11DB11DE4
:100DB000D2CF1F920F920FB60F9211242F933F9311
:100DC0004F935F936F937F938F939F93AF93BF9353
:100DD000EF93FF9385E092E00E94F400FF91EF9182
:100DE000BF91AF919F918F917F916F915F914F9143
:100DF0003F912F910F900FBE0F901F9018951F924B
:100E00000F920FB60F9211242F938F939F93EF930E
:100E1000FF93E0911502F09116028081E0911B0290
:100E2000F0911C0282FD1BC0908180911E028F5F99
:100E30008F7320911F02821741F0E0911E02F0E0B3
:100E4000EB5FFD4F958F80931E02FF91EF919F9175
:100E50008F912F910F900FBE0F901F90189580814A
:100E6000F4CFCF93DF93CDB7DEB7DA950FB6F89412
:100E7000DEBF0FBECDBF789484B5826084BD84B5DB
:100E8000816084BD85B5826085BD85B5816085BD85
:100E900080916E00816080936E001092810080913D
:100EA00081008260809381008091810081608093C5
:100EB0008100809180008160809380008091B100EA
:100EC00084608093B1008091B00081608093B00015
:100ED00080917A00846080937A0080917A008260A9
:100EE00080937A0080917A00816080937A0080916B
:100EF0007A00806880937A001092C1001092EF020D
:100F000087E390E0C12CD12C7601C3940097C1F007
:100F1000FC0123E0F595E7952A95E1F7ED55FD4FA6
:100F2000282F2770B701A60104C0440F551F661F64
:100F3000771F2A95D2F72081242B20830197E6CFB3
:100F400068E271E085EC92E00E94BA048CEB92E0DA
:100F50009093AB028093AA020CB406FC25C061E01A
:100F60008AE00E94EE0161E08AE00E94C00161E037
:100F70008BE00E94EE0161E08DE00E94EE0160E0F6
:100F80008CE00E94EE0161E08BE00E94C00160E015
:100F90008BE00E94C00160E08DE00E94C00180E50E
:100FA0008CBD8DB581608DBD8AE08093A20261E029
:100FB0000E94EE010E942A034FEF60E08FEF0E9433
:100FC0005E030E941F026B017C0182E0882E912C3F
:100FD000A12CB12C0E941F026C197D098E099F095A
:100FE000683E734081059105A8F328EEC20E23E008
:100FF000D21EE11CF11C8A9489288A288B2829F0AA
:10100000812C912C54018394E5CF0E9431038DE112
:101010000E94250380E00E9425031EB50E942A033A
:10102000112399F370E060E088E00E949C0370E077
:1010300060E08CE00E949C036FEF7BE08AE00E94FE
:101040009C0360E07CE084E00E949C036FEF71E110
:1010500086E00E949C0366E774E084E10E943F04FE
:1010600061EB88E30E948F036FE370E388E20E94E4
:101070009C0369EF77EF80E30E949C0361E080ECC2
:101080000E948F0342E362EC80E80E945E0362E10B
:101090007CE086EC0E949C0362E184EC0E948F035A
:1010A0006CED75E08AEC0E949C036091C50284EEB1
:1010B0000E948F036091C60285EE0E948F036091AB
:1010C000C70282EE0E948F036091C80283EE0E94E5
:1010D0008F036091C90280EE0E948F036091CA0263
:1010E00081EE0E948F0360E071E080E10E943F0486
:1010F0008FE10E94730340EC6BE180E80E945E0385
:1011000044E06FE180E80E945E0382E70E94A90349
:101110001092EF0264E271E08BEB95E00E94CD0447
:101120001092ED021092EC0281E08093EE0260E2F8
:1011300071E088EE92E00E94CD04EBEBF5E027EB46
:1011400035E06BEC72E04FEB55E09191D9018D9158
:101150009D018095892BDB018D93BD014E175F07A3
:10116000A1F760E082E00E94EE01FE0131966F017E
:10117000BDE92B2EB0E03B2E14E5412E11E0512E9F
:10118000FF24F394E5ECF0E08491E1EBF0E01491BE
:10119000F101049101115EC18EE491E09F938F9360
:1011A0005F924F92DF92CF920E948B0D0F900F9023
:1011B0000F900F900F900F908091AE02882379F0DE
:1011C0006091AC027091AD026115710509F054C1D6
:1011D0006FEF7BE08CE00E949C031092AE0289E3EB
:1011E0000E94A90310E000E0882309F444C0609144
:1011F000AC027091AD0280E00E949C03BE0165507C
:101200007F4F86E090E00E943703C550DF4F888112
:101210009981CB5FD0409093AD028093AC02C150D6
:10122000DF4F88819981CF5FD0408C0100781127F2
:1012300087FF16C0C350DF4F88819981CD5FD040B2
:1012400004970091AA021091AB0201501109801776
:10125000910708F48C0162EF72E0C8010E94370325
:10126000F801EE50FD4F1082F092AE0240E46EE1C4
:1012700080E80E945E038091EF02882369F08091EC
:10128000C402823009F401C108F0F9C0882309F4CE
:101290007AC1813009F4A1C10115110509F02EC2EE
:1012A0008091EE02857029F18091EC029091ED021F
:1012B000892BF9F461E184ED0E948F0361E082EDF6
:1012C0000E948F038AEE0E94A90380FDFBCF60E09D
:1012D00082ED0E948F0389ED0E94A90382FF09C05D
:1012E00088EE92E00E9434058091EE02886080933F
:1012F000EE028091EC029091ED0201969093ED0246
:101300008093EC028091E702813009F06EC08091F9
:10131000EE0281FF6AC082E08093E70280912F0194
:101320008F5F80932F01182F1F718DED92E00E9427
:1013300097006DED72E0882309F4DDC18FEC92E037
:101340000E940B0508E00093FE021092FF0249E0A4
:1013500050E06EE770E080E093E00E944C0D8CE27C
:101360008093030386E0809309030E941603109282
:101370001603109217038BE0809314031093150348
:10138000E8E1F3E0DF011D920A95E9F780912E0173
:1013900080931A038D5F80932E0180E68093200353
:1013A00082E08093210393E0909322031092230321
:1013B0001092240310922503109226031092270303
:1013C0008093280394E09093290380932A0386E274
:1013D00080932B0322E040E250E06AE182E30E9426
:1013E000C3028AE390E00E94C10383EE92E00E9470
:1013F0009700882371F08091E20281110AC08091E8
:10140000E102811106C083EE92E00E943405F09261
:10141000E1028DED92E00E949700882371F08091A7
:10142000DC0281110AC08091DB02811106C08DEDC2
:1014300092E00E943405F092DB02E0E0F0E0EF2B56
:1014400009F4A0CE0E948301882309F491CE0E9462
:1014500000008ECE81110E949701E02FF0E0EE0F88
:10146000FF1FEC58FF4FA591B4918C91182309F4FC
:1014700093CE88E491E092CE61507109ABCE833077
:1014800009F456C0843009F007CF65E0C8010E9416
:101490005204882309F4CCC08091B302811108C0A2
:1014A00088E30E94A903682F6E7F88E30E948F0360
:1014B0006CE273E08BEB95E00E94CD04ECE0F4E08D
:1014C000C8018E509D4F3C015F0192E0A90EB11CF6
:1014D000E1808081863009F4FDC008F0C0C0813011
:1014E00009F4EEC0833009F4F1C0F501EE0DF11DF1
:1014F000E615F70548F30E9444026093BC0270931E
:10150000BD028093BE029093BF028091E8028823BF
:1015100059F01092ED021092EC02F092EE0268EE99
:1015200072E0CB010E94CD0483E08093C402B4CE6C
:101530008090C0029090C102A090C202B090C302FD
:10154000FFEF8F169F06AF06BF0609F4A5CE0E94D7
:1015500044022091BC023091BD024091BE025091E4
:10156000BF02621B730B840B950B681579058A0506
:101570009B0508F491CE8BEB95E00E94680584E012
:101580008093C4021FC00E9444026093B40270930F
:10159000B5028093B6029093B702EBEBF5E084E0DE
:1015A000DF011D928A95E9F790E080E00E946805CE
:1015B00088E30E94A903682F616088E30E948F037B
:1015C000F092C4020E9444026093B8027093B90280
:1015D0008093BA029093BB025FCE62E0C8010E9482
:1015E0005204882329F16CE273E0CE0185509F4FAD
:1015F0000E94CD04ECE0F4E0C8018E509D4FBF0185
:101600006E5F7F4F21813081363359F48FEA92E04B
:101610000E94CD04CE0185509F4F0E94680582E054
:10162000AFCFFB01E20FF11DE817F90740F3F2CF4E
:101630000E9444022091B8023091B9024091BA024E
:101640005091BB02621B730B840B950B6131774287
:101650008105910508F420CE1092C4021DCE8A3374
:1016600031F08F3F09F447CF833309F03ECF10921A
:10167000C0021092C1021092C2021092C302F50180
:10168000C501049620E030E0A9016191542F432F59
:10169000322F2227260F311D411D511D8E179F0706
:1016A000A1F72F3FAFEF3A074A075A07B9F4209343
:1016B000C0023093C1024093C2025093C30215CFBF
:1016C000B50187EB95E00E94CD040FCFB50188EE00
:1016D00092E0F9CFB50183EE92E0F5CFA8EEB3E04A
:1016E0000E94550D6093C0027093C1028093C202A4
:1016F0009093C302FACE85ED92E022CE0932110515
:1017000008F49BCE8091FE02883009F096CE80913D
:10171000FF02863009F04BC144E050E06BEB75E00E
:1017200088E193E00E94750D892B09F086CE8091A7
:101730000703813029F588EF92E00E94C2041092DD
:10174000060382E08093070368E073E082E193E0A0
:101750000E94BA0465EC72E088E093E00E94BA044B
:101760006EE073E088E193E00E94CD046BEB75E0DE
:101770008EE093E00E94CD048AE290E00E94C103D3
:101780008091EE0283FF0DC010910703123049F4DF
:1017900065ED72E088EE92E00E941D0581111093C4
:1017A000EE028091E202811110C08091E102882353
:1017B00061F06FEC72E083EE92E00E941D058823D9
:1017C00021F0F092E2021092E1028091DC0281119C
:1017D00034CE8091DB02882309F42FCE6FEC72E0C7
:1017E0008DED92E00E941D05882309F426CEF0922B
:1017F000DC021092DB0221CE0633110508F41DCE67
:10180000863009F01ACE809116038B3009F04BC058
:1018100044E050E06DED72E08CE093E00E94750DC5
:10182000892B09F00ACE1091210385E012FD33C007
:101830000E947D022091E702223001F5212F2071C4
:101840001271123181F460E090E080E00E94E704C0
:1018500088E18093210383E08093E70290E080E0B9
:101860000E942104EACDF092E7020196222311F0B2
:1018700090E080E064E00E94E704DFCD253009F4C9
:10188000DCCD10FF0BC0233009F4D7CD69E0019601
:101890000E94E70486E08093E702CFCD60E00097E6
:1018A00009F4CBCDE8CF8111C8CD809117038035E5
:1018B00009F0C3CD7090210371FE39C0109202036C
:1018C0008CE2809303030E94D50482E1809321037C
:1018D00060E081E090E00E9498021092180310925C
:1018E000190380912E0180931A0310921B038D5FC0
:1018F00080932E0182E08093280384E08093290363
:1019000085E080932A0310922B0390E690932003A6
:101910008093220388E78093230322E040E250E093
:101920006AE182E30E94C3028AE390E085C074FE0C
:1019300084CD0E947D025C019093F1028093F002BD
:10194000892B79F18091200390E024E0959587958B
:101950002A95E1F7880F991F880F991F829608171B
:10196000190708F46ACDF60101900020E9F73197D4
:10197000AF014C195D09B60188E293E00E94820D27
:10198000F60101900020E9F731978F010C191D092C
:1019900060E0C5010E94E70489E180932103C8014A
:1019A0005FCF70FE4ACD60E090E080E064CF093206
:1019B000110509F442CD811140CD80910003853499
:1019C00009F03BCD44E050E06BEB75E080E193E043
:1019D0000E94750D892BA9F044E050E06BEC72E099
:1019E00080E193E00E94750D892B59F044E050E0AE
:1019F00062E471E080E193E00E94750D892B09F0AB
:101A00001CCD80910903813009F0F6CE809114033A
:101A1000883009F012CD0E94D504109214038091F1
:101A20001603883F28F0909117039F5F9093170348
:101A3000885F80931603C8010E94C103FECCE5E0D5
:101A4000F2E01382128288EE93E0A0E0B0E084839B
:101A50009583A683B78384E391E09183808385ECAB
:101A600090E09587848784EC90E09787868780EC68
:101A700090E0918B808B81EC90E0938B828B82EC59
:101A800090E0958B848B86EC90E0978B868B118E03
:101A9000128E138E148E0895FB01DC0102C0059096
:101AA0000D9241505040D8F708950E94660DA59FB1
:101AB000900DB49F900DA49F800D911D1124089549
:101AC000EE0FFF1F0590F491E02D0994A29FB00145
:101AD000B39FC001A39F700D811D1124911DB29F62
:101AE000700D811D1124911D0895FB01DC0104C0BE
:101AF0008D910190801921F441505040C8F7881B06
:101B0000990B0895FB01DC0102C001900D92415038
:101B10005040D8F70895AEE0B0E0E1E9FDE00C9464
:101B20003A100D891E8986E08C831A8309838FEF12
:101B30009FE79E838D83AE01475E5F4F6F89788DEF
:101B4000CE0101960E94AE0D2F813885020F131F22
:101B5000F80110822E96E4E00C945610ABE0B0E051
:101B6000E4EBFDE00C942C107C013B018A01FC01AC
:101B700017821682838181FFC8C1CE0101965C0164
:101B8000F7019381F30193FD859193FF81913F01CB
:101B9000882309F453C1853239F493FD859193FF6D
:101BA00081913F01853229F4B70190E00E949E0F98
:101BB000E7CF912C212C312CFFE1F31538F08B323B
:101BC00011F190F4803209F1833229F137FC3CC0E5
:101BD00020ED280F2A3050F536FE20C08AE0989E6E
:101BE000200D1124922E06C08D3291F0803371F7B2
:101BF000689430F8F30193FD859193FF81913F0143
:101C00008111DACF21C0689431F8689432F8F2CFAC
:101C1000689433F8EFCF689434F8ECCFEAE02E9E66
:101C2000200D1124222E689435F8E4CF8E3229F449
:101C300036FC04C1689436F8DDCF8C3619F468940C
:101C400037F8D8CF8836B1F2982F9F7D95549330CE
:101C5000E0F08336A1F18337C1F1833509F063C029
:101C60002801F2E04F0E511CF801C080D180692D8F
:101C700070E036FC02C06FEF7FEFC6010E94880F54
:101C80004C01689437F882010AC00C5F1F4FFFE3D4
:101C9000F98388248394912C6501E89437F833FE06
:101CA0002DC0522C8114910471F5552009F468CF90
:101CB000B70180E290E00E949E0F5A94F6CFF8019F
:101CC000808189830E5F1F4FE4CF2801F2E04F0E21
:101CD000511CF801C080D180692D70E036FC02C033
:101CE0006FEF7FEFC6010E94930F4C018201D5CFA9
:101CF000B70180E290E00E949E0F2A9428141904F4
:101D000009F0B0F7CECFF60137FC859137FE81910F
:101D10006F01B70190E00E949E0F51105A94F1E0BC
:101D20008F1A9108BFCF843619F0893609F077C031
:101D3000F80137FE6BC060817181828193810C5FF5
:101D40001F4FF32DFF763F2E97FF09C0909580958A
:101D5000709561957F4F8F4F9F4F689437F82AE0B9
:101D600030E0A5010E94CE0FC82ECA188C2C432C3F
:101D700036FE0CC0E89440F8C91440F434FE05C0A7
:101D800032FC03C0F32DFE7E4F2E892C44FE95C0FD
:101D9000FE01EC0DF11D8081803309F087C0242DF8
:101DA000297E422E842D8870582E43FC95C040FE1B
:101DB0008FC09C2C821418F42C0C922C981844FE82
:101DC00091C0B70180E390E00E949E0F42FE09C0DF
:101DD00088E790E041FE02C088E590E0B7010E94EC
:101DE0009E0FC91408F48AC0CA94D12C9FEFC91A57
:101DF000D90ACA0CDB1CF60182916F01B70190E091
:101E00000E949E0FAC14BD04B1F74FCF6081718169
:101E1000072E000C880B990B0E5F1F4F92CFD32C0F
:101E2000E894D4F82AE030E0853739F1232D297F72
:101E3000D22E8F3601F148F48835A9F0F70186815A
:101E400097812B96E2E10C944810803749F088374F
:101E5000A9F7D4FE02C06894D2F820E130E00DC0AA
:101E60006894D4F8F6CF34FE03C0822F8660D82E53
:101E700020E132E002C028E030E0F801D7FE0FC0D8
:101E800060817181828193810C5F1F4FA5010E9447
:101E9000CE0FC82ECA183D2CE89437F867CF608162
:101EA000718190E080E00E5F1F4FF0CF42FC02C0D6
:101EB000839478CF8394839475CF842D867809F4A6
:101EC00071CFF6CFB70180E290E00E949E0F83941D
:101ED0008214C0F3512C73CF522C5818821408F47A
:101EE0006ECFF8CF842D867809F47BCF8BE241FE4C
:101EF00080E247FC8DE2B70190E071CFB70180E34B
:101F000090E00E949E0F9A946CCF8FEF9FEF99CF35
:101F1000FC010590615070400110D8F780959095B4
:101F20008E0F9F1F0895FC016150704001900110B9
:101F3000D8F7809590958E0F9F1F08950F931F934C
:101F4000CF93DF93182F092FEB018B8181FD09C0FF
:101F50001FEF0FEF812F902FDF91CF911F910F91E6
:101F6000089582FF14C02E813F818C819D812817A6
:101F700039073CF4E881F981CF0101969983888380
:101F800010838E819F8101969F838E83E3CFE885A6
:101F9000F985812F0995892BA1F3DACFFA01AA27B8
:101FA000283051F1203181F1E8946F936E7F6E5F9C
:101FB0007F4F8F4F9F4FAF4FB1E03ED0B4E03CD04A
:101FC000670F781F891F9A1FA11D680F791F8A1F2D
:101FD000911DA11D6A0F711D811D911DA11D20D094
:101FE00009F468943F912AE0269F11243019305D4E
:101FF0003193DEF6CF010895462F4770405D41933F
:10200000B3E00FD0C9F7F6CF462F4F70405D4A338B
:1020100018F0495D31FD4052419302D0A9F7EACF53
:10202000B4E0A6959795879577956795BA95C9F782
:1020300000976105710508959B01AC010A2E069475
:102040005795479537952795BA95C9F7620F731F2E
:10205000841F951FA01D08952F923F924F925F926B
:102060006F927F928F929F92AF92BF92CF92DF92A8
:10207000EF92FF920F931F93CF93DF93CDB7DEB70D
:10208000CA1BDB0B0FB6F894DEBF0FBECDBF0994A1
:102090002A88398848885F846E847D848C849B84F8
:1020A000AA84B984C884DF80EE80FD800C811B8106
:1020B000AA81B981CE0FD11D0FB6F894DEBF0FBE35
:0A20C000CDBFED010895F894FFCFA5
:1020CA0041726475696E6F2D454E4332386A3630F7
:1020DA002D30300000000000000000000000000069
:1020EA00A9FEC712A9FEC7137469692D30310A0106
:1020FA000000000016015002B7006301E800C600A4
:10210A00DA00FFFFFFFFFFFF546964616B20487527
:10211A006A616E00485454502F312E3120323030CB
:10212A00204F4B0D0A436F6E74656E742D5479708F
:10213A00653A20746578742F68746D6C0D0A436F64
:10214A006E6E656374696F6E3A20636C6F73650DAA
:10215A000A0D0A3C68746D6C3E0D0A3C6865616440
:10216A003E0D0A3C6D65746120687474702D65714A
:10217A007569763D27726566726573682720636F95
:10218A006E74656E743D2733273E0D0A3C2F6865D1
:10219A0061643E0D0A3C626F64793E0D0A537461B4
:1021AA007475732048756A616E3A2025730D0A3C6E
:1021BA002F626F64793E0D0A3C2F68746D6C3E0D78
:0221CA000A0009
:00000001FF
